{
  "_format": "hh-sol-artifact-1",
  "contractName": "Distributor",
  "sourceName": "contracts/distributor.sol",
  "abi": [
    {
      "inputs": [
        {
          "internalType": "address",
          "name": "token_",
          "type": "address"
        },
        {
          "internalType": "address",
          "name": "nft_",
          "type": "address"
        }
      ],
      "stateMutability": "nonpayable",
      "type": "constructor"
    },
    {
      "inputs": [
        {
          "internalType": "address",
          "name": "account",
          "type": "address"
        },
        {
          "internalType": "uint256",
          "name": "amount",
          "type": "uint256"
        }
      ],
      "name": "mintERC20",
      "outputs": [],
      "stateMutability": "nonpayable",
      "type": "function"
    },
    {
      "inputs": [
        {
          "internalType": "address",
          "name": "to",
          "type": "address"
        },
        {
          "internalType": "uint256",
          "name": "tokenId",
          "type": "uint256"
        },
        {
          "internalType": "string",
          "name": "uri",
          "type": "string"
        }
      ],
      "name": "mintERC721",
      "outputs": [],
      "stateMutability": "nonpayable",
      "type": "function"
    }
  ],
  "bytecode": "0x608060405234801561001057600080fd5b506040516103b73803806103b783398101604081905261002f9161007c565b600080546001600160a01b039384166001600160a01b031991821617909155600180549290931691161790556100af565b80516001600160a01b038116811461007757600080fd5b919050565b6000806040838503121561008f57600080fd5b61009883610060565b91506100a660208401610060565b90509250929050565b6102f9806100be6000396000f3fe608060405234801561001057600080fd5b50600436106100365760003560e01c806350b3f8461461003b5780637c4ca9cc14610050575b600080fd5b61004e61004936600461016a565b610063565b005b61004e61005e366004610234565b6100ce565b6001546040516334ff261960e21b81526001600160a01b039091169063d3fc9864906100979086908690869060040161025e565b600060405180830381600087803b1580156100b157600080fd5b505af11580156100c5573d6000803e3d6000fd5b50505050505050565b6000546040516340c10f1960e01b81526001600160a01b03848116600483015260248201849052909116906340c10f1990604401600060405180830381600087803b15801561011c57600080fd5b505af1158015610130573d6000803e3d6000fd5b505050505050565b80356001600160a01b038116811461014f57600080fd5b919050565b634e487b7160e01b600052604160045260246000fd5b60008060006060848603121561017f57600080fd5b61018884610138565b92506020840135915060408401356001600160401b03808211156101ab57600080fd5b818601915086601f8301126101bf57600080fd5b8135818111156101d1576101d1610154565b604051601f8201601f19908116603f011681019083821181831017156101f9576101f9610154565b8160405282815289602084870101111561021257600080fd5b8260208601602083013760006020848301015280955050505050509250925092565b6000806040838503121561024757600080fd5b61025083610138565b946020939093013593505050565b60018060a01b038416815260006020848184015260606040840152835180606085015260005b818110156102a057858101830151858201608001528201610284565b506000608082860101526080601f19601f8301168501019250505094935050505056fea26469706673582212206dd6e905a8d9f18cbaa13997d25374b2ad948a5af3cd34c1c29770f65a1f6c2564736f6c63430008140033",
  "linkReferences": {},
  "deployedLinkReferences": {}
}