{
  "_format": "hh-sol-artifact-1",
  "contractName": "MockERC721",
  "sourceName": "contracts/nft.sol",
  "abi": [
    {
      "inputs": [
        {
          "internalType": "string",
          "name": "name",
          "type": "string"
        },
        {
          "internalType": "string",
          "name": "symbol",
          "type": "string"
        }
      ],
      "stateMutability": "nonpayable",
      "type": "constructor"
    },
    {
      "inputs": [
        {
          "internalType": "address",
          "name": "sender",
          "type": "address"
        },
        {
          "internalType": "uint256",
          "name": "tokenId",
          "type": "uint256"
        },
        {
          "internalType": "address",
          "name": "owner",
          "type": "address"
        }
      ],
      "name": "ERC721IncorrectOwner",
      "type": "error"
    },
    {
      "inputs": [
        {
          "internalType": "address",
          "name": "operator",
          "type": "address"
        },
        {
          "internalType": "uint256",
          "name": "tokenId",
          "type": "uint256"
        }
      ],
      "name": "ERC721InsufficientApproval",
      "type": "error"
    },
    {
      "inputs": [
        {
          "internalType": "address",
          "name": "approver",
          "type": "address"
        }
      ],
      "name": "ERC721InvalidApprover",
      "type": "error"
    },
    {
      "inputs": [
        {
          "internalType": "address",
          "name": "operator",
          "type": "address"
        }
      ],
      "name": "ERC721InvalidOperator",
      "type": "error"
    },
    {
      "inputs": [
        {
          "internalType": "address",
          "name": "owner",
          "type": "address"
        }
      ],
      "name": "ERC721InvalidOwner",
      "type": "error"
    },
    {
      "inputs": [
        {
          "internalType": "address",
          "name": "receiver",
          "type": "address"
        }
      ],
      "name": "ERC721InvalidReceiver",
      "type": "error"
    },
    {
      "inputs": [
        {
          "internalType": "address",
          "name": "sender",
          "type": "address"
        }
      ],
      "name": "ERC721InvalidSender",
      "type": "error"
    },
    {
      "inputs": [
        {
          "internalType": "uint256",
          "name": "tokenId",
          "type": "uint256"
        }
      ],
      "name": "ERC721NonexistentToken",
      "type": "error"
    },
    {
      "anonymous": false,
      "inputs": [
        {
          "indexed": true,
          "internalType": "address",
          "name": "owner",
          "type": "address"
        },
        {
          "indexed": true,
          "internalType": "address",
          "name": "approved",
          "type": "address"
        },
        {
          "indexed": true,
          "internalType": "uint256",
          "name": "tokenId",
          "type": "uint256"
        }
      ],
      "name": "Approval",
      "type": "event"
    },
    {
      "anonymous": false,
      "inputs": [
        {
          "indexed": true,
          "internalType": "address",
          "name": "owner",
          "type": "address"
        },
        {
          "indexed": true,
          "internalType": "address",
          "name": "operator",
          "type": "address"
        },
        {
          "indexed": false,
          "internalType": "bool",
          "name": "approved",
          "type": "bool"
        }
      ],
      "name": "ApprovalForAll",
      "type": "event"
    },
    {
      "anonymous": false,
      "inputs": [
        {
          "indexed": false,
          "internalType": "uint256",
          "name": "_fromTokenId",
          "type": "uint256"
        },
        {
          "indexed": false,
          "internalType": "uint256",
          "name": "_toTokenId",
          "type": "uint256"
        }
      ],
      "name": "BatchMetadataUpdate",
      "type": "event"
    },
    {
      "anonymous": false,
      "inputs": [
        {
          "indexed": false,
          "internalType": "uint256",
          "name": "_tokenId",
          "type": "uint256"
        }
      ],
      "name": "MetadataUpdate",
      "type": "event"
    },
    {
      "anonymous": false,
      "inputs": [
        {
          "indexed": true,
          "internalType": "address",
          "name": "from",
          "type": "address"
        },
        {
          "indexed": true,
          "internalType": "address",
          "name": "to",
          "type": "address"
        },
        {
          "indexed": true,
          "internalType": "uint256",
          "name": "tokenId",
          "type": "uint256"
        }
      ],
      "name": "Transfer",
      "type": "event"
    },
    {
      "inputs": [
        {
          "internalType": "address",
          "name": "to",
          "type": "address"
        },
        {
          "internalType": "uint256",
          "name": "tokenId",
          "type": "uint256"
        }
      ],
      "name": "approve",
      "outputs": [],
      "stateMutability": "nonpayable",
      "type": "function"
    },
    {
      "inputs": [
        {
          "internalType": "address",
          "name": "owner",
          "type": "address"
        }
      ],
      "name": "balanceOf",
      "outputs": [
        {
          "internalType": "uint256",
          "name": "",
          "type": "uint256"
        }
      ],
      "stateMutability": "view",
      "type": "function"
    },
    {
      "inputs": [
        {
          "internalType": "uint256",
          "name": "tokenId",
          "type": "uint256"
        }
      ],
      "name": "burn",
      "outputs": [],
      "stateMutability": "nonpayable",
      "type": "function"
    },
    {
      "inputs": [
        {
          "internalType": "uint256",
          "name": "tokenId",
          "type": "uint256"
        }
      ],
      "name": "getApproved",
      "outputs": [
        {
          "internalType": "address",
          "name": "",
          "type": "address"
        }
      ],
      "stateMutability": "view",
      "type": "function"
    },
    {
      "inputs": [
        {
          "internalType": "address",
          "name": "owner",
          "type": "address"
        },
        {
          "internalType": "address",
          "name": "operator",
          "type": "address"
        }
      ],
      "name": "isApprovedForAll",
      "outputs": [
        {
          "internalType": "bool",
          "name": "",
          "type": "bool"
        }
      ],
      "stateMutability": "view",
      "type": "function"
    },
    {
      "inputs": [
        {
          "internalType": "address",
          "name": "to",
          "type": "address"
        },
        {
          "internalType": "uint256",
          "name": "tokenId",
          "type": "uint256"
        },
        {
          "internalType": "string",
          "name": "uri",
          "type": "string"
        }
      ],
      "name": "mint",
      "outputs": [],
      "stateMutability": "nonpayable",
      "type": "function"
    },
    {
      "inputs": [],
      "name": "name",
      "outputs": [
        {
          "internalType": "string",
          "name": "",
          "type": "string"
        }
      ],
      "stateMutability": "view",
      "type": "function"
    },
    {
      "inputs": [
        {
          "internalType": "uint256",
          "name": "tokenId",
          "type": "uint256"
        }
      ],
      "name": "ownerOf",
      "outputs": [
        {
          "internalType": "address",
          "name": "",
          "type": "address"
        }
      ],
      "stateMutability": "view",
      "type": "function"
    },
    {
      "inputs": [
        {
          "internalType": "address",
          "name": "from",
          "type": "address"
        },
        {
          "internalType": "address",
          "name": "to",
          "type": "address"
        },
        {
          "internalType": "uint256",
          "name": "tokenId",
          "type": "uint256"
        }
      ],
      "name": "safeTransferFrom",
      "outputs": [],
      "stateMutability": "nonpayable",
      "type": "function"
    },
    {
      "inputs": [
        {
          "internalType": "address",
          "name": "from",
          "type": "address"
        },
        {
          "internalType": "address",
          "name": "to",
          "type": "address"
        },
        {
          "internalType": "uint256",
          "name": "tokenId",
          "type": "uint256"
        },
        {
          "internalType": "bytes",
          "name": "data",
          "type": "bytes"
        }
      ],
      "name": "safeTransferFrom",
      "outputs": [],
      "stateMutability": "nonpayable",
      "type": "function"
    },
    {
      "inputs": [
        {
          "internalType": "address",
          "name": "operator",
          "type": "address"
        },
        {
          "internalType": "bool",
          "name": "approved",
          "type": "bool"
        }
      ],
      "name": "setApprovalForAll",
      "outputs": [],
      "stateMutability": "nonpayable",
      "type": "function"
    },
    {
      "inputs": [
        {
          "internalType": "bytes4",
          "name": "interfaceId",
          "type": "bytes4"
        }
      ],
      "name": "supportsInterface",
      "outputs": [
        {
          "internalType": "bool",
          "name": "",
          "type": "bool"
        }
      ],
      "stateMutability": "view",
      "type": "function"
    },
    {
      "inputs": [],
      "name": "symbol",
      "outputs": [
        {
          "internalType": "string",
          "name": "",
          "type": "string"
        }
      ],
      "stateMutability": "view",
      "type": "function"
    },
    {
      "inputs": [
        {
          "internalType": "uint256",
          "name": "tokenId",
          "type": "uint256"
        }
      ],
      "name": "tokenURI",
      "outputs": [
        {
          "internalType": "string",
          "name": "",
          "type": "string"
        }
      ],
      "stateMutability": "view",
      "type": "function"
    },
    {
      "inputs": [
        {
          "internalType": "address",
          "name": "from",
          "type": "address"
        },
        {
          "internalType": "address",
          "name": "to",
          "type": "address"
        },
        {
          "internalType": "uint256",
          "name": "tokenId",
          "type": "uint256"
        }
      ],
      "name": "transferFrom",
      "outputs": [],
      "stateMutability": "nonpayable",
      "type": "function"
    }
  ],
  "bytecode": "0x60806040523480156200001157600080fd5b506040516200159d3803806200159d833981016040819052620000349162000123565b818160006200004483826200021c565b5060016200005382826200021c565b5050505050620002e8565b634e487b7160e01b600052604160045260246000fd5b600082601f8301126200008657600080fd5b81516001600160401b0380821115620000a357620000a36200005e565b604051601f8301601f19908116603f01168101908282118183101715620000ce57620000ce6200005e565b81604052838152602092508683858801011115620000eb57600080fd5b600091505b838210156200010f5785820183015181830184015290820190620000f0565b600093810190920192909252949350505050565b600080604083850312156200013757600080fd5b82516001600160401b03808211156200014f57600080fd5b6200015d8683870162000074565b935060208501519150808211156200017457600080fd5b50620001838582860162000074565b9150509250929050565b600181811c90821680620001a257607f821691505b602082108103620001c357634e487b7160e01b600052602260045260246000fd5b50919050565b601f8211156200021757600081815260208120601f850160051c81016020861015620001f25750805b601f850160051c820191505b818110156200021357828155600101620001fe565b5050505b505050565b81516001600160401b038111156200023857620002386200005e565b62000250816200024984546200018d565b84620001c9565b602080601f8311600181146200028857600084156200026f5750858301515b600019600386901b1c1916600185901b17855562000213565b600085815260208120601f198616915b82811015620002b95788860151825594840194600190910190840162000298565b5085821015620002d85787850151600019600388901b60f8161c191681555b5050505050600190811b01905550565b6112a580620002f86000396000f3fe608060405234801561001057600080fd5b50600436106100c55760003560e01c806301ffc9a7146100ca57806306fdde03146100f2578063081812fc14610107578063095ea7b31461012757806323b872dd1461013c57806342842e0e1461014f57806342966c68146101625780636352211e1461017557806370a082311461018857806395d89b41146101a9578063a22cb465146101b1578063b88d4fde146101c4578063c87b56dd146101d7578063d3fc9864146101ea578063e985e9c5146101fd575b600080fd5b6100dd6100d8366004610d7e565b610210565b60405190151581526020015b60405180910390f35b6100fa610221565b6040516100e99190610deb565b61011a610115366004610dfe565b6102b3565b6040516100e99190610e17565b61013a610135366004610e47565b6102c8565b005b61013a61014a366004610e71565b6102d7565b61013a61015d366004610e71565b61036b565b61013a610170366004610dfe565b61038b565b61011a610183366004610dfe565b610397565b61019b610196366004610ead565b6103a2565b6040519081526020016100e9565b6100fa6103ea565b61013a6101bf366004610ec8565b6103f9565b61013a6101d2366004610f8f565b610404565b6100fa6101e5366004610dfe565b61041c565b61013a6101f836600461100a565b610427565b6100dd61020b366004611074565b61043b565b600061021b82610469565b92915050565b606060008054610230906110a7565b80601f016020809104026020016040519081016040528092919081815260200182805461025c906110a7565b80156102a95780601f1061027e576101008083540402835291602001916102a9565b820191906000526020600020905b81548152906001019060200180831161028c57829003601f168201915b5050505050905090565b60006102be8261048e565b5061021b826104c6565b6102d38282336104e1565b5050565b6001600160a01b03821661030a576000604051633250574960e11b81526004016103019190610e17565b60405180910390fd5b60006103178383336104ee565b9050836001600160a01b0316816001600160a01b031614610365576040516364283d7b60e01b81526001600160a01b0380861660048301526024820184905282166044820152606401610301565b50505050565b61038683838360405180602001604052806000815250610404565b505050565b6102d3600082336104ee565b600061021b8261048e565b60006001600160a01b0382166103ce5760006040516322718ad960e21b81526004016103019190610e17565b506001600160a01b031660009081526003602052604090205490565b606060018054610230906110a7565b6102d33383836105e2565b61040f8484846102d7565b6103653385858585610678565b606061021b82610791565b61043183836108a2565b6103868282610907565b6001600160a01b03918216600090815260056020908152604080832093909416825291909152205460ff1690565b60006001600160e01b03198216632483248360e11b148061021b575061021b82610957565b60008061049a836109a7565b90506001600160a01b03811661021b57604051637e27328960e01b815260048101849052602401610301565b6000908152600460205260409020546001600160a01b031690565b61038683838360016109c2565b6000806104fa846109a7565b90506001600160a01b0383161561051657610516818486610abf565b6001600160a01b03811615610554576105336000856000806109c2565b6001600160a01b038116600090815260036020526040902080546000190190555b6001600160a01b03851615610583576001600160a01b0385166000908152600360205260409020805460010190555b60008481526002602052604080822080546001600160a01b0319166001600160a01b0389811691821790925591518793918516917fddf252ad1be2c89b69c2b068fc378daa952ba7f163c4a11628f55a4df523b3ef91a4949350505050565b6001600160a01b03821661060b5781604051630b61174360e31b81526004016103019190610e17565b6001600160a01b03838116600081815260056020908152604080832094871680845294825291829020805460ff191686151590811790915591519182527f17307eab39ab6107e8899845ad3d59bd9653f200f220920489ca2b5937696c31910160405180910390a3505050565b6001600160a01b0383163b1561078a57604051630a85bd0160e11b81526001600160a01b0384169063150b7a02906106ba9088908890879087906004016110e1565b6020604051808303816000875af19250505080156106f5575060408051601f3d908101601f191682019092526106f29181019061111e565b60015b610755573d808015610723576040519150601f19603f3d011682016040523d82523d6000602084013e610728565b606091505b50805160000361074d5783604051633250574960e11b81526004016103019190610e17565b805181602001fd5b6001600160e01b03198116630a85bd0160e11b146107885783604051633250574960e11b81526004016103019190610e17565b505b5050505050565b606061079c8261048e565b50600082815260066020526040812080546107b6906110a7565b80601f01602080910402602001604051908101604052809291908181526020018280546107e2906110a7565b801561082f5780601f106108045761010080835404028352916020019161082f565b820191906000526020600020905b81548152906001019060200180831161081257829003601f168201915b50505050509050600061084d60408051602081019091526000815290565b9050805160000361085f575092915050565b81511561089157808260405160200161087992919061113b565b60405160208183030381529060405292505050919050565b61089a84610b23565b949350505050565b6001600160a01b0382166108cc576000604051633250574960e11b81526004016103019190610e17565b60006108da838360006104ee565b90506001600160a01b038116156103865760006040516339e3563760e11b81526004016103019190610e17565b600082815260066020526040902061091f82826111b0565b506040518281527ff8e1a15aba9398e019f0b49df1a4fde98ee17ae345cb5f6b5e2c27f5033e8ce79060200160405180910390a15050565b60006001600160e01b031982166380ac58cd60e01b148061098857506001600160e01b03198216635b5e139f60e01b145b8061021b57506301ffc9a760e01b6001600160e01b031983161461021b565b6000908152600260205260409020546001600160a01b031690565b80806109d657506001600160a01b03821615155b15610a8f5760006109e68461048e565b90506001600160a01b03831615801590610a125750826001600160a01b0316816001600160a01b031614155b8015610a255750610a23818461043b565b155b15610a45578260405163a9fbf51f60e01b81526004016103019190610e17565b8115610a8d5783856001600160a01b0316826001600160a01b03167f8c5be1e5ebec7d5bd14f71427d1e84f3dd0314c0f7b2291e5b200ac8c7c3b92560405160405180910390a45b505b5050600090815260046020526040902080546001600160a01b0319166001600160a01b0392909216919091179055565b610aca838383610b98565b610386576001600160a01b038316610af857604051637e27328960e01b815260048101829052602401610301565b60405163177e802f60e01b81526001600160a01b038316600482015260248101829052604401610301565b6060610b2e8261048e565b506000610b4660408051602081019091526000815290565b90506000815111610b665760405180602001604052806000815250610b91565b80610b7084610bfd565b604051602001610b8192919061113b565b6040516020818303038152906040525b9392505050565b60006001600160a01b0383161580159061089a5750826001600160a01b0316846001600160a01b03161480610bd25750610bd2848461043b565b8061089a5750826001600160a01b0316610beb836104c6565b6001600160a01b031614949350505050565b60606000610c0a83610c8f565b60010190506000816001600160401b03811115610c2957610c29610f04565b6040519080825280601f01601f191660200182016040528015610c53576020820181803683370190505b5090508181016020015b600019016f181899199a1a9b1b9c1cb0b131b232b360811b600a86061a8153600a8504945084610c5d57509392505050565b60008072184f03e93ff9f4daa797ed6e38ed64bf6a1f0160401b8310610cce5772184f03e93ff9f4daa797ed6e38ed64bf6a1f0160401b830492506040015b6904ee2d6d415b85acef8160201b8310610cf8576904ee2d6d415b85acef8160201b830492506020015b662386f26fc100008310610d1657662386f26fc10000830492506010015b6305f5e1008310610d2e576305f5e100830492506008015b6127108310610d4257612710830492506004015b60648310610d54576064830492506002015b600a831061021b5760010192915050565b6001600160e01b031981168114610d7b57600080fd5b50565b600060208284031215610d9057600080fd5b8135610b9181610d65565b60005b83811015610db6578181015183820152602001610d9e565b50506000910152565b60008151808452610dd7816020860160208601610d9b565b601f01601f19169290920160200192915050565b602081526000610b916020830184610dbf565b600060208284031215610e1057600080fd5b5035919050565b6001600160a01b0391909116815260200190565b80356001600160a01b0381168114610e4257600080fd5b919050565b60008060408385031215610e5a57600080fd5b610e6383610e2b565b946020939093013593505050565b600080600060608486031215610e8657600080fd5b610e8f84610e2b565b9250610e9d60208501610e2b565b9150604084013590509250925092565b600060208284031215610ebf57600080fd5b610b9182610e2b565b60008060408385031215610edb57600080fd5b610ee483610e2b565b915060208301358015158114610ef957600080fd5b809150509250929050565b634e487b7160e01b600052604160045260246000fd5b60006001600160401b0380841115610f3457610f34610f04565b604051601f8501601f19908116603f01168101908282118183101715610f5c57610f5c610f04565b81604052809350858152868686011115610f7557600080fd5b858560208301376000602087830101525050509392505050565b60008060008060808587031215610fa557600080fd5b610fae85610e2b565b9350610fbc60208601610e2b565b92506040850135915060608501356001600160401b03811115610fde57600080fd5b8501601f81018713610fef57600080fd5b610ffe87823560208401610f1a565b91505092959194509250565b60008060006060848603121561101f57600080fd5b61102884610e2b565b92506020840135915060408401356001600160401b0381111561104a57600080fd5b8401601f8101861361105b57600080fd5b61106a86823560208401610f1a565b9150509250925092565b6000806040838503121561108757600080fd5b61109083610e2b565b915061109e60208401610e2b565b90509250929050565b600181811c908216806110bb57607f821691505b6020821081036110db57634e487b7160e01b600052602260045260246000fd5b50919050565b6001600160a01b038581168252841660208201526040810183905260806060820181905260009061111490830184610dbf565b9695505050505050565b60006020828403121561113057600080fd5b8151610b9181610d65565b6000835161114d818460208801610d9b565b835190830190611161818360208801610d9b565b01949350505050565b601f82111561038657600081815260208120601f850160051c810160208610156111915750805b601f850160051c820191505b818110156107885782815560010161119d565b81516001600160401b038111156111c9576111c9610f04565b6111dd816111d784546110a7565b8461116a565b602080601f83116001811461121257600084156111fa5750858301515b600019600386901b1c1916600185901b178555610788565b600085815260208120601f198616915b8281101561124157888601518255948401946001909101908401611222565b508582101561125f5787850151600019600388901b60f8161c191681555b5050505050600190811b0190555056fea264697066735822122064f1ef6d85fb0faf982c516640dd39bddbffda2affe3f2fb74a2906f40efda4764736f6c63430008140033",
  "linkReferences": {},
  "deployedLinkReferences": {}
}