{
  "_format": "hh-sol-artifact-1",
  "contractName": "MultiSig",
  "sourceName": "contracts/multisig.sol",
  "abi": [
    {
      "inputs": [
        {
          "internalType": "address[]",
          "name": "_owners",
          "type": "address[]"
        },
        {
          "internalType": "uint256",
          "name": "_numConfirmationsRequired",
          "type": "uint256"
        }
      ],
      "stateMutability": "nonpayable",
      "type": "constructor"
    },
    {
      "anonymous": false,
      "inputs": [
        {
          "indexed": true,
          "internalType": "address",
          "name": "owner",
          "type": "address"
        },
        {
          "indexed": true,
          "internalType": "uint256",
          "name": "txIndex",
          "type": "uint256"
        }
      ],
      "name": "ConfirmTransaction",
      "type": "event"
    },
    {
      "anonymous": false,
      "inputs": [
        {
          "indexed": true,
          "internalType": "address",
          "name": "sender",
          "type": "address"
        },
        {
          "indexed": false,
          "internalType": "uint256",
          "name": "amount",
          "type": "uint256"
        },
        {
          "indexed": false,
          "internalType": "uint256",
          "name": "balance",
          "type": "uint256"
        }
      ],
      "name": "Deposit",
      "type": "event"
    },
    {
      "anonymous": false,
      "inputs": [
        {
          "indexed": true,
          "internalType": "address",
          "name": "owner",
          "type": "address"
        },
        {
          "indexed": true,
          "internalType": "uint256",
          "name": "txIndex",
          "type": "uint256"
        }
      ],
      "name": "ExecuteTransaction",
      "type": "event"
    },
    {
      "anonymous": false,
      "inputs": [
        {
          "indexed": true,
          "internalType": "address",
          "name": "owner",
          "type": "address"
        },
        {
          "indexed": true,
          "internalType": "uint256",
          "name": "txIndex",
          "type": "uint256"
        }
      ],
      "name": "RevokeConfirmation",
      "type": "event"
    },
    {
      "anonymous": false,
      "inputs": [
        {
          "indexed": true,
          "internalType": "address",
          "name": "owner",
          "type": "address"
        },
        {
          "indexed": true,
          "internalType": "uint256",
          "name": "txIndex",
          "type": "uint256"
        },
        {
          "indexed": true,
          "internalType": "address",
          "name": "to",
          "type": "address"
        },
        {
          "indexed": false,
          "internalType": "uint256",
          "name": "value",
          "type": "uint256"
        },
        {
          "indexed": false,
          "internalType": "bytes",
          "name": "data",
          "type": "bytes"
        }
      ],
      "name": "SubmitTransaction",
      "type": "event"
    },
    {
      "inputs": [
        {
          "internalType": "uint256",
          "name": "_txIndex",
          "type": "uint256"
        }
      ],
      "name": "confirmTransaction",
      "outputs": [],
      "stateMutability": "nonpayable",
      "type": "function"
    },
    {
      "inputs": [
        {
          "internalType": "uint256",
          "name": "_txIndex",
          "type": "uint256"
        }
      ],
      "name": "executeTransaction",
      "outputs": [],
      "stateMutability": "nonpayable",
      "type": "function"
    },
    {
      "inputs": [
        {
          "internalType": "uint256",
          "name": "_txIndex",
          "type": "uint256"
        }
      ],
      "name": "getTransaction",
      "outputs": [
        {
          "internalType": "address",
          "name": "to",
          "type": "address"
        },
        {
          "internalType": "uint256",
          "name": "value",
          "type": "uint256"
        },
        {
          "internalType": "bytes",
          "name": "data",
          "type": "bytes"
        },
        {
          "internalType": "bool",
          "name": "executed",
          "type": "bool"
        },
        {
          "internalType": "uint256",
          "name": "numConfirmations",
          "type": "uint256"
        }
      ],
      "stateMutability": "view",
      "type": "function"
    },
    {
      "inputs": [],
      "name": "getTransactionCount",
      "outputs": [
        {
          "internalType": "uint256",
          "name": "",
          "type": "uint256"
        }
      ],
      "stateMutability": "view",
      "type": "function"
    },
    {
      "inputs": [
        {
          "internalType": "uint256",
          "name": "",
          "type": "uint256"
        },
        {
          "internalType": "address",
          "name": "",
          "type": "address"
        }
      ],
      "name": "isConfirmed",
      "outputs": [
        {
          "internalType": "bool",
          "name": "",
          "type": "bool"
        }
      ],
      "stateMutability": "view",
      "type": "function"
    },
    {
      "inputs": [
        {
          "internalType": "address",
          "name": "",
          "type": "address"
        }
      ],
      "name": "isOwner",
      "outputs": [
        {
          "internalType": "bool",
          "name": "",
          "type": "bool"
        }
      ],
      "stateMutability": "view",
      "type": "function"
    },
    {
      "inputs": [],
      "name": "numConfirmationsRequired",
      "outputs": [
        {
          "internalType": "uint256",
          "name": "",
          "type": "uint256"
        }
      ],
      "stateMutability": "view",
      "type": "function"
    },
    {
      "inputs": [
        {
          "internalType": "uint256",
          "name": "_txIndex",
          "type": "uint256"
        }
      ],
      "name": "revokeConfirmation",
      "outputs": [],
      "stateMutability": "nonpayable",
      "type": "function"
    },
    {
      "inputs": [
        {
          "internalType": "address",
          "name": "_to",
          "type": "address"
        },
        {
          "internalType": "uint256",
          "name": "_value",
          "type": "uint256"
        },
        {
          "internalType": "bytes",
          "name": "_data",
          "type": "bytes"
        }
      ],
      "name": "submitTransaction",
      "outputs": [],
      "stateMutability": "nonpayable",
      "type": "function"
    },
    {
      "inputs": [
        {
          "internalType": "uint256",
          "name": "",
          "type": "uint256"
        }
      ],
      "name": "transactions",
      "outputs": [
        {
          "internalType": "address",
          "name": "to",
          "type": "address"
        },
        {
          "internalType": "uint256",
          "name": "value",
          "type": "uint256"
        },
        {
          "internalType": "bytes",
          "name": "data",
          "type": "bytes"
        },
        {
          "internalType": "bool",
          "name": "executed",
          "type": "bool"
        },
        {
          "internalType": "uint256",
          "name": "numConfirmations",
          "type": "uint256"
        }
      ],
      "stateMutability": "view",
      "type": "function"
    },
    {
      "stateMutability": "payable",
      "type": "receive"
    }
  ],
  "bytecode": "0x60806040523480156200001157600080fd5b50604051620012ed380380620012ed833981016040819052620000349162000246565b60008251116200007d5760405162461bcd60e51b815260206004820152600f60248201526e1bdddb995c9cc81c995c5d5a5c9959608a1b60448201526064015b60405180910390fd5b6000811180156200008f575081518111155b620000ee5760405162461bcd60e51b815260206004820152602860248201527f696e76616c6964206e756d626572206f6620726571756972656420636f6e6669604482015267726d6174696f6e7360c01b606482015260840162000074565b60005b82518110156200020857600083828151811062000112576200011262000320565b6020026020010151905060006001600160a01b0316816001600160a01b031603620001705760405162461bcd60e51b815260206004820152600d60248201526c34b73b30b634b21037bbb732b960991b604482015260640162000074565b6001600160a01b03811660009081526001602052604090205460ff1615620001ce5760405162461bcd60e51b815260206004820152601060248201526f6f776e6572206e6f7420756e6971756560801b604482015260640162000074565b6001600160a01b03166000908152600160208190526040909120805460ff1916909117905580620001ff8162000336565b915050620000f1565b50600055506200035e565b634e487b7160e01b600052604160045260246000fd5b80516001600160a01b03811681146200024157600080fd5b919050565b600080604083850312156200025a57600080fd5b82516001600160401b03808211156200027257600080fd5b818501915085601f8301126200028757600080fd5b81516020828211156200029e576200029e62000213565b8160051b604051601f19603f83011681018181108682111715620002c657620002c662000213565b604052928352818301935084810182019289841115620002e557600080fd5b948201945b838610156200030e57620002fe8662000229565b85529482019493820193620002ea565b97909101519698969750505050505050565b634e487b7160e01b600052603260045260246000fd5b6000600182016200035757634e487b7160e01b600052601160045260246000fd5b5060010190565b610f7f806200036e6000396000f3fe6080604052600436106100855760003560e01c806320ea8d86146100cb5780632e7700f0146100ed5780632f54bf6e1461011157806333ea3dc81461015157806380f59a65146101825780639ace38c2146101bd578063c01a8c84146101dd578063c6427474146101fd578063d0549b851461021d578063ee22610b1461023357600080fd5b366100c6576040805134815247602082015233917f90890809c654f11d6e72a28fa60149770a0d11ec6c92319d6ceb2bb0a4ea1a15910160405180910390a2005b600080fd5b3480156100d757600080fd5b506100eb6100e6366004610ab3565b610253565b005b3480156100f957600080fd5b506003545b6040519081526020015b60405180910390f35b34801561011d57600080fd5b5061014161012c366004610ae8565b60016020526000908152604090205460ff1681565b6040519015158152602001610108565b34801561015d57600080fd5b5061017161016c366004610ab3565b6103de565b604051610108959493929190610b50565b34801561018e57600080fd5b5061014161019d366004610b8b565b600260209081526000928352604080842090915290825290205460ff1681565b3480156101c957600080fd5b506101716101d8366004610ab3565b6104d9565b3480156101e957600080fd5b506100eb6101f8366004610ab3565b6105b2565b34801561020957600080fd5b506100eb610218366004610bcd565b610740565b34801561022957600080fd5b506100fe60005481565b34801561023f57600080fd5b506100eb61024e366004610ab3565b6108c0565b3360009081526001602052604090205460ff1661028b5760405162461bcd60e51b815260040161028290610c97565b60405180910390fd5b600354819081106102ae5760405162461bcd60e51b815260040161028290610cba565b81600381815481106102c2576102c2610ce5565b600091825260209091206003600590920201015460ff16156102f65760405162461bcd60e51b815260040161028290610cfb565b60006003848154811061030b5761030b610ce5565b600091825260208083208784526002825260408085203386529092529220546005909102909101915060ff166103765760405162461bcd60e51b815260206004820152601060248201526f1d1e081b9bdd0818dbdb999a5c9b595960821b6044820152606401610282565b600181600401600082825461038b9190610d3e565b90915550506000848152600260209081526040808320338085529252808320805460ff191690555186927ff0dca620e2e81f7841d07bcc105e1704fb01475b278a9d4c236e1c62945edd5591a350505050565b60008060606000806000600387815481106103fb576103fb610ce5565b6000918252602090912060059091020180546001820154600383015460048401546002850180549596506001600160a01b039094169492939260ff90921691839061044590610d57565b80601f016020809104026020016040519081016040528092919081815260200182805461047190610d57565b80156104be5780601f10610493576101008083540402835291602001916104be565b820191906000526020600020905b8154815290600101906020018083116104a157829003601f168201915b50505050509250955095509550955095505091939590929450565b600381815481106104e957600080fd5b60009182526020909120600590910201805460018201546002830180546001600160a01b03909316945090929161051f90610d57565b80601f016020809104026020016040519081016040528092919081815260200182805461054b90610d57565b80156105985780601f1061056d57610100808354040283529160200191610598565b820191906000526020600020905b81548152906001019060200180831161057b57829003601f168201915b505050506003830154600490930154919260ff1691905085565b3360009081526001602052604090205460ff166105e15760405162461bcd60e51b815260040161028290610c97565b600354819081106106045760405162461bcd60e51b815260040161028290610cba565b816003818154811061061857610618610ce5565b600091825260209091206003600590920201015460ff161561064c5760405162461bcd60e51b815260040161028290610cfb565b6000838152600260209081526040808320338452909152902054839060ff16156106af5760405162461bcd60e51b81526020600482015260146024820152731d1e08185b1c9958591e4818dbdb999a5c9b595960621b6044820152606401610282565b6000600385815481106106c4576106c4610ce5565b9060005260206000209060050201905060018160040160008282546106e99190610d91565b90915550506000858152600260209081526040808320338085529252808320805460ff191660011790555187927f5cbe105e36805f7820e291f799d5794ff948af2a5f664e580382defb6339004191a35050505050565b3360009081526001602052604090205460ff1661076f5760405162461bcd60e51b815260040161028290610c97565b600380546040805160a0810182526001600160a01b03878116825260208201878152928201868152600060608401819052608084018190526001860187559590955281517fc2575a0e9e593c00f959f8c92f12db2869c3395a3b0502d05e2516446f71f85b6005860290810180546001600160a01b0319169290931691909117825592517fc2575a0e9e593c00f959f8c92f12db2869c3395a3b0502d05e2516446f71f85c84015593519293909290917fc2575a0e9e593c00f959f8c92f12db2869c3395a3b0502d05e2516446f71f85d019061084c9082610df3565b50606082015160038201805460ff19169115159190911790556080909101516004909101556040516001600160a01b03851690829033907fd5a05bf70715ad82a09a756320284a1b54c9ff74cd0f8cce6219e79b563fe59d906108b29088908890610eb2565b60405180910390a450505050565b3360009081526001602052604090205460ff166108ef5760405162461bcd60e51b815260040161028290610c97565b600354819081106109125760405162461bcd60e51b815260040161028290610cba565b816003818154811061092657610926610ce5565b600091825260209091206003600590920201015460ff161561095a5760405162461bcd60e51b815260040161028290610cfb565b60006003848154811061096f5761096f610ce5565b90600052602060002090600502019050600054816004015410156109c95760405162461bcd60e51b81526020600482015260116024820152700c6c2dcdcdee840caf0cac6eae8ca40e8f607b1b6044820152606401610282565b60038101805460ff191660019081179091558154908201546040516000926001600160a01b03169190610a00906002860190610ed3565b60006040518083038185875af1925050503d8060008114610a3d576040519150601f19603f3d011682016040523d82523d6000602084013e610a42565b606091505b5050905080610a7f5760405162461bcd60e51b81526020600482015260096024820152681d1e0819985a5b195960ba1b6044820152606401610282565b604051859033907f5445f318f4f5fcfb66592e68e0cc5822aa15664039bd5f0ffde24c5a8142b1ac90600090a35050505050565b600060208284031215610ac557600080fd5b5035919050565b80356001600160a01b0381168114610ae357600080fd5b919050565b600060208284031215610afa57600080fd5b610b0382610acc565b9392505050565b6000815180845260005b81811015610b3057602081850181015186830182015201610b14565b506000602082860101526020601f19601f83011685010191505092915050565b60018060a01b038616815284602082015260a060408201526000610b7760a0830186610b0a565b931515606083015250608001529392505050565b60008060408385031215610b9e57600080fd5b82359150610bae60208401610acc565b90509250929050565b634e487b7160e01b600052604160045260246000fd5b600080600060608486031215610be257600080fd5b610beb84610acc565b92506020840135915060408401356001600160401b0380821115610c0e57600080fd5b818601915086601f830112610c2257600080fd5b813581811115610c3457610c34610bb7565b604051601f8201601f19908116603f01168101908382118183101715610c5c57610c5c610bb7565b81604052828152896020848701011115610c7557600080fd5b8260208601602083013760006020848301015280955050505050509250925092565b6020808252600990820152683737ba1037bbb732b960b91b604082015260600190565b6020808252601190820152701d1e08191bd95cc81b9bdd08195e1a5cdd607a1b604082015260600190565b634e487b7160e01b600052603260045260246000fd5b6020808252601390820152721d1e08185b1c9958591e48195e1958dd5d1959606a1b604082015260600190565b634e487b7160e01b600052601160045260246000fd5b81810381811115610d5157610d51610d28565b92915050565b600181811c90821680610d6b57607f821691505b602082108103610d8b57634e487b7160e01b600052602260045260246000fd5b50919050565b80820180821115610d5157610d51610d28565b601f821115610dee57600081815260208120601f850160051c81016020861015610dcb5750805b601f850160051c820191505b81811015610dea57828155600101610dd7565b5050505b505050565b81516001600160401b03811115610e0c57610e0c610bb7565b610e2081610e1a8454610d57565b84610da4565b602080601f831160018114610e555760008415610e3d5750858301515b600019600386901b1c1916600185901b178555610dea565b600085815260208120601f198616915b82811015610e8457888601518255948401946001909101908401610e65565b5085821015610ea25787850151600019600388901b60f8161c191681555b5050505050600190811b01905550565b828152604060208201526000610ecb6040830184610b0a565b949350505050565b6000808354610ee181610d57565b60018281168015610ef95760018114610f0e57610f3d565b60ff1984168752821515830287019450610f3d565b8760005260208060002060005b85811015610f345781548a820152908401908201610f1b565b50505082870194505b5092969550505050505056fea2646970667358221220db6690258356b0559435212a8ae0e721fe7efc3c9eef212b1e77dce49ae7e12f64736f6c63430008140033",
  "linkReferences": {},
  "deployedLinkReferences": {}
}